{
  "contractName": "CelebritySignature",
  "abi": [
    {
      "inputs": [],
      "stateMutability": "nonpayable",
      "type": "constructor"
    },
    {
      "anonymous": false,
      "inputs": [
        {
          "indexed": true,
          "internalType": "address",
          "name": "owner",
          "type": "address"
        },
        {
          "indexed": true,
          "internalType": "address",
          "name": "approved",
          "type": "address"
        },
        {
          "indexed": true,
          "internalType": "uint256",
          "name": "tokenId",
          "type": "uint256"
        }
      ],
      "name": "Approval",
      "type": "event"
    },
    {
      "anonymous": false,
      "inputs": [
        {
          "indexed": true,
          "internalType": "address",
          "name": "owner",
          "type": "address"
        },
        {
          "indexed": true,
          "internalType": "address",
          "name": "operator",
          "type": "address"
        },
        {
          "indexed": false,
          "internalType": "bool",
          "name": "approved",
          "type": "bool"
        }
      ],
      "name": "ApprovalForAll",
      "type": "event"
    },
    {
      "anonymous": false,
      "inputs": [],
      "name": "ItemBuyedSuccessfully",
      "type": "event"
    },
    {
      "anonymous": false,
      "inputs": [],
      "name": "ItemListedSuccessfully",
      "type": "event"
    },
    {
      "anonymous": false,
      "inputs": [
        {
          "indexed": true,
          "internalType": "address",
          "name": "from",
          "type": "address"
        },
        {
          "indexed": true,
          "internalType": "address",
          "name": "to",
          "type": "address"
        },
        {
          "indexed": true,
          "internalType": "uint256",
          "name": "tokenId",
          "type": "uint256"
        }
      ],
      "name": "Transfer",
      "type": "event"
    },
    {
      "inputs": [
        {
          "internalType": "address",
          "name": "to",
          "type": "address"
        },
        {
          "internalType": "uint256",
          "name": "tokenId",
          "type": "uint256"
        }
      ],
      "name": "approve",
      "outputs": [],
      "stateMutability": "nonpayable",
      "type": "function"
    },
    {
      "inputs": [
        {
          "internalType": "address",
          "name": "owner",
          "type": "address"
        }
      ],
      "name": "balanceOf",
      "outputs": [
        {
          "internalType": "uint256",
          "name": "",
          "type": "uint256"
        }
      ],
      "stateMutability": "view",
      "type": "function",
      "constant": true
    },
    {
      "inputs": [
        {
          "internalType": "uint256",
          "name": "tokenId",
          "type": "uint256"
        }
      ],
      "name": "getApproved",
      "outputs": [
        {
          "internalType": "address",
          "name": "",
          "type": "address"
        }
      ],
      "stateMutability": "view",
      "type": "function",
      "constant": true
    },
    {
      "inputs": [
        {
          "internalType": "address",
          "name": "owner",
          "type": "address"
        },
        {
          "internalType": "address",
          "name": "operator",
          "type": "address"
        }
      ],
      "name": "isApprovedForAll",
      "outputs": [
        {
          "internalType": "bool",
          "name": "",
          "type": "bool"
        }
      ],
      "stateMutability": "view",
      "type": "function",
      "constant": true
    },
    {
      "inputs": [],
      "name": "name",
      "outputs": [
        {
          "internalType": "string",
          "name": "",
          "type": "string"
        }
      ],
      "stateMutability": "view",
      "type": "function",
      "constant": true
    },
    {
      "inputs": [
        {
          "internalType": "uint256",
          "name": "tokenId",
          "type": "uint256"
        }
      ],
      "name": "ownerOf",
      "outputs": [
        {
          "internalType": "address",
          "name": "",
          "type": "address"
        }
      ],
      "stateMutability": "view",
      "type": "function",
      "constant": true
    },
    {
      "inputs": [
        {
          "internalType": "address",
          "name": "from",
          "type": "address"
        },
        {
          "internalType": "address",
          "name": "to",
          "type": "address"
        },
        {
          "internalType": "uint256",
          "name": "tokenId",
          "type": "uint256"
        }
      ],
      "name": "safeTransferFrom",
      "outputs": [],
      "stateMutability": "nonpayable",
      "type": "function"
    },
    {
      "inputs": [
        {
          "internalType": "address",
          "name": "from",
          "type": "address"
        },
        {
          "internalType": "address",
          "name": "to",
          "type": "address"
        },
        {
          "internalType": "uint256",
          "name": "tokenId",
          "type": "uint256"
        },
        {
          "internalType": "bytes",
          "name": "data",
          "type": "bytes"
        }
      ],
      "name": "safeTransferFrom",
      "outputs": [],
      "stateMutability": "nonpayable",
      "type": "function"
    },
    {
      "inputs": [
        {
          "internalType": "address",
          "name": "operator",
          "type": "address"
        },
        {
          "internalType": "bool",
          "name": "approved",
          "type": "bool"
        }
      ],
      "name": "setApprovalForAll",
      "outputs": [],
      "stateMutability": "nonpayable",
      "type": "function"
    },
    {
      "inputs": [
        {
          "internalType": "bytes4",
          "name": "interfaceId",
          "type": "bytes4"
        }
      ],
      "name": "supportsInterface",
      "outputs": [
        {
          "internalType": "bool",
          "name": "",
          "type": "bool"
        }
      ],
      "stateMutability": "view",
      "type": "function",
      "constant": true
    },
    {
      "inputs": [],
      "name": "symbol",
      "outputs": [
        {
          "internalType": "string",
          "name": "",
          "type": "string"
        }
      ],
      "stateMutability": "view",
      "type": "function",
      "constant": true
    },
    {
      "inputs": [
        {
          "internalType": "uint256",
          "name": "tokenId",
          "type": "uint256"
        }
      ],
      "name": "tokenURI",
      "outputs": [
        {
          "internalType": "string",
          "name": "",
          "type": "string"
        }
      ],
      "stateMutability": "view",
      "type": "function",
      "constant": true
    },
    {
      "inputs": [
        {
          "internalType": "address",
          "name": "from",
          "type": "address"
        },
        {
          "internalType": "address",
          "name": "to",
          "type": "address"
        },
        {
          "internalType": "uint256",
          "name": "tokenId",
          "type": "uint256"
        }
      ],
      "name": "transferFrom",
      "outputs": [],
      "stateMutability": "nonpayable",
      "type": "function"
    },
    {
      "inputs": [],
      "name": "getPriceToList",
      "outputs": [
        {
          "internalType": "uint256",
          "name": "",
          "type": "uint256"
        }
      ],
      "stateMutability": "view",
      "type": "function",
      "constant": true
    },
    {
      "inputs": [
        {
          "internalType": "uint256",
          "name": "price",
          "type": "uint256"
        }
      ],
      "name": "updatePriceToList",
      "outputs": [],
      "stateMutability": "nonpayable",
      "type": "function"
    },
    {
      "inputs": [],
      "name": "OwnerOfSC",
      "outputs": [
        {
          "internalType": "address",
          "name": "",
          "type": "address"
        }
      ],
      "stateMutability": "view",
      "type": "function",
      "constant": true
    },
    {
      "inputs": [
        {
          "internalType": "string",
          "name": "tokenURI",
          "type": "string"
        },
        {
          "internalType": "uint256",
          "name": "enteredPrice",
          "type": "uint256"
        },
        {
          "internalType": "uint256",
          "name": "certificateHash",
          "type": "uint256"
        }
      ],
      "name": "ListItem",
      "outputs": [],
      "stateMutability": "payable",
      "type": "function",
      "payable": true
    },
    {
      "inputs": [],
      "name": "getMyNFT",
      "outputs": [
        {
          "components": [
            {
              "internalType": "uint256",
              "name": "sigID",
              "type": "uint256"
            },
            {
              "internalType": "uint256",
              "name": "price",
              "type": "uint256"
            },
            {
              "internalType": "bool",
              "name": "forSale",
              "type": "bool"
            },
            {
              "internalType": "uint256",
              "name": "certificateHash",
              "type": "uint256"
            },
            {
              "internalType": "address payable",
              "name": "owner",
              "type": "address"
            },
            {
              "internalType": "address payable",
              "name": "seller",
              "type": "address"
            },
            {
              "internalType": "address payable",
              "name": "originalSeller",
              "type": "address"
            }
          ],
          "internalType": "struct CelebritySignature.SignatureDetails[]",
          "name": "",
          "type": "tuple[]"
        }
      ],
      "stateMutability": "view",
      "type": "function",
      "constant": true
    },
    {
      "inputs": [
        {
          "internalType": "uint256",
          "name": "tokenID",
          "type": "uint256"
        }
      ],
      "name": "buyItem",
      "outputs": [],
      "stateMutability": "payable",
      "type": "function",
      "payable": true
    },
    {
      "inputs": [],
      "name": "ItemsListedForSale",
      "outputs": [
        {
          "components": [
            {
              "internalType": "uint256",
              "name": "sigID",
              "type": "uint256"
            },
            {
              "internalType": "uint256",
              "name": "price",
              "type": "uint256"
            },
            {
              "internalType": "bool",
              "name": "forSale",
              "type": "bool"
            },
            {
              "internalType": "uint256",
              "name": "certificateHash",
              "type": "uint256"
            },
            {
              "internalType": "address payable",
              "name": "owner",
              "type": "address"
            },
            {
              "internalType": "address payable",
              "name": "seller",
              "type": "address"
            },
            {
              "internalType": "address payable",
              "name": "originalSeller",
              "type": "address"
            }
          ],
          "internalType": "struct CelebritySignature.SignatureDetails[]",
          "name": "",
          "type": "tuple[]"
        }
      ],
      "stateMutability": "view",
      "type": "function",
      "constant": true
    },
    {
      "inputs": [
        {
          "internalType": "uint256",
          "name": "tokenID",
          "type": "uint256"
        },
        {
          "internalType": "uint256",
          "name": "enteredPrice",
          "type": "uint256"
        }
      ],
      "name": "resalePrepurchasedSignature",
      "outputs": [],
      "stateMutability": "payable",
      "type": "function",
      "payable": true
    },
    {
      "inputs": [
        {
          "internalType": "uint256",
          "name": "tokenID",
          "type": "uint256"
        }
      ],
      "name": "getPriceOfanyNFT",
      "outputs": [
        {
          "internalType": "uint256",
          "name": "",
          "type": "uint256"
        }
      ],
      "stateMutability": "view",
      "type": "function",
      "constant": true
    },
    {
      "inputs": [
        {
          "internalType": "uint256",
          "name": "tokenID",
          "type": "uint256"
        }
      ],
      "name": "getMinimumPriceToListBeforeSelling",
      "outputs": [
        {
          "internalType": "uint256",
          "name": "",
          "type": "uint256"
        }
      ],
      "stateMutability": "view",
      "type": "function",
      "constant": true
    },
    {
      "inputs": [],
      "name": "withdrawFunds",
      "outputs": [
        {
          "internalType": "uint256",
          "name": "",
          "type": "uint256"
        }
      ],
      "stateMutability": "nonpayable",
      "type": "function"
    }
  ],
  "bytecode": "0x6080604052662386f26fc1000060085560006009553480156200002157600080fd5b506040518060400160405280600e81526020017f43454c45425349474e544f4b454e0000000000000000000000000000000000008152506040518060400160405280600381526020017f435354000000000000000000000000000000000000000000000000000000000081525081600090816200009f919062000375565b508060019081620000b1919062000375565b50505033600760006101000a81548173ffffffffffffffffffffffffffffffffffffffff021916908373ffffffffffffffffffffffffffffffffffffffff1602179055506200045c565b600081519050919050565b7f4e487b7100000000000000000000000000000000000000000000000000000000600052604160045260246000fd5b7f4e487b7100000000000000000000000000000000000000000000000000000000600052602260045260246000fd5b600060028204905060018216806200017d57607f821691505b60208210810362000193576200019262000135565b5b50919050565b60008190508160005260206000209050919050565b60006020601f8301049050919050565b600082821b905092915050565b600060088302620001fd7fffffffffffffffffffffffffffffffffffffffffffffffffffffffffffffffff82620001be565b620002098683620001be565b95508019841693508086168417925050509392505050565b6000819050919050565b6000819050919050565b600062000256620002506200024a8462000221565b6200022b565b62000221565b9050919050565b6000819050919050565b620002728362000235565b6200028a62000281826200025d565b848454620001cb565b825550505050565b600090565b620002a162000292565b620002ae81848462000267565b505050565b5b81811015620002d657620002ca60008262000297565b600181019050620002b4565b5050565b601f8211156200032557620002ef8162000199565b620002fa84620001ae565b810160208510156200030a578190505b620003226200031985620001ae565b830182620002b3565b50505b505050565b600082821c905092915050565b60006200034a600019846008026200032a565b1980831691505092915050565b600062000365838362000337565b9150826002028217905092915050565b6200038082620000fb565b67ffffffffffffffff8111156200039c576200039b62000106565b5b620003a8825462000164565b620003b5828285620002da565b600060209050601f831160018114620003ed5760008415620003d8578287015190505b620003e4858262000357565b86555062000454565b601f198416620003fd8662000199565b60005b82811015620004275784890151825560018201915060208501945060208101905062000400565b8683101562000447578489015162000443601f89168262000337565b8355505b6001600288020188555050505b505050505050565b614e4e806200046c6000396000f3fe60806040526004361061014b5760003560e01c806370a08231116100b6578063c87b56dd1161006f578063c87b56dd146104a9578063cad7d033146104e6578063d7e20d4514610511578063e7a159d21461053a578063e7fb74c714610556578063e985e9c5146105725761014b565b806370a082311461038757806394fb86c0146103c457806395d89b4114610401578063a22cb4651461042c578063aabb700e14610455578063b88d4fde146104805761014b565b806323b872dd1161010857806323b872dd1461028657806324600fc3146102af57806342842e0e146102da5780634754dad2146103035780635e384b591461031f5780636352211e1461034a5761014b565b806301ffc9a71461015057806306fdde031461018d578063081812fc146101b8578063095ea7b3146101f55780631f92e3631461021e578063230d5c6f1461025b575b600080fd5b34801561015c57600080fd5b5061017760048036038101906101729190613137565b6105af565b604051610184919061317f565b60405180910390f35b34801561019957600080fd5b506101a2610691565b6040516101af919061322a565b60405180910390f35b3480156101c457600080fd5b506101df60048036038101906101da9190613282565b610723565b6040516101ec91906132f0565b60405180910390f35b34801561020157600080fd5b5061021c60048036038101906102179190613337565b610769565b005b34801561022a57600080fd5b5061024560048036038101906102409190613282565b610880565b6040516102529190613386565b60405180910390f35b34801561026757600080fd5b50610270610976565b60405161027d9190613386565b60405180910390f35b34801561029257600080fd5b506102ad60048036038101906102a891906133a1565b610980565b005b3480156102bb57600080fd5b506102c46109e0565b6040516102d19190613386565b60405180910390f35b3480156102e657600080fd5b5061030160048036038101906102fc91906133a1565b610ae2565b005b61031d600480360381019061031891906133f4565b610b02565b005b34801561032b57600080fd5b50610334610d3f565b60405161034191906135b0565b60405180910390f35b34801561035657600080fd5b50610371600480360381019061036c9190613282565b61105d565b60405161037e91906132f0565b60405180910390f35b34801561039357600080fd5b506103ae60048036038101906103a991906135d2565b6110e3565b6040516103bb9190613386565b60405180910390f35b3480156103d057600080fd5b506103eb60048036038101906103e69190613282565b61119a565b6040516103f89190613386565b60405180910390f35b34801561040d57600080fd5b50610416611324565b604051610423919061322a565b60405180910390f35b34801561043857600080fd5b50610453600480360381019061044e919061362b565b6113b6565b005b34801561046157600080fd5b5061046a6113cc565b60405161047791906132f0565b60405180910390f35b34801561048c57600080fd5b506104a760048036038101906104a291906137a0565b6113f6565b005b3480156104b557600080fd5b506104d060048036038101906104cb9190613282565b611458565b6040516104dd919061322a565b60405180910390f35b3480156104f257600080fd5b506104fb61156a565b60405161050891906135b0565b60405180910390f35b34801561051d57600080fd5b5061053860048036038101906105339190613282565b611962565b005b610554600480360381019061054f91906138c4565b611a0e565b005b610570600480360381019061056b9190613282565b611d85565b005b34801561057e57600080fd5b5061059960048036038101906105949190613933565b6120ef565b6040516105a6919061317f565b60405180910390f35b60007f80ac58cd000000000000000000000000000000000000000000000000000000007bffffffffffffffffffffffffffffffffffffffffffffffffffffffff1916827bffffffffffffffffffffffffffffffffffffffffffffffffffffffff1916148061067a57507f5b5e139f000000000000000000000000000000000000000000000000000000007bffffffffffffffffffffffffffffffffffffffffffffffffffffffff1916827bffffffffffffffffffffffffffffffffffffffffffffffffffffffff1916145b8061068a575061068982612183565b5b9050919050565b6060600080546106a0906139a2565b80601f01602080910402602001604051908101604052809291908181526020018280546106cc906139a2565b80156107195780601f106106ee57610100808354040283529160200191610719565b820191906000526020600020905b8154815290600101906020018083116106fc57829003601f168201915b5050505050905090565b600061072e826121ed565b6004600083815260200190815260200160002060009054906101000a900473ffffffffffffffffffffffffffffffffffffffff169050919050565b60006107748261105d565b90508073ffffffffffffffffffffffffffffffffffffffff168373ffffffffffffffffffffffffffffffffffffffff16036107e4576040517f08c379a00000000000000000000000000000000000000000000000000000000081526004016107db90613a45565b60405180910390fd5b8073ffffffffffffffffffffffffffffffffffffffff16610803612238565b73ffffffffffffffffffffffffffffffffffffffff16148061083257506108318161082c612238565b6120ef565b5b610871576040517f08c379a000000000000000000000000000000000000000000000000000000000815260040161086890613ad7565b60405180910390fd5b61087b8383612240565b505050565b60003373ffffffffffffffffffffffffffffffffffffffff16600a600084815260200190815260200160002060040160009054906101000a900473ffffffffffffffffffffffffffffffffffffffff1673ffffffffffffffffffffffffffffffffffffffff1614610926576040517f08c379a000000000000000000000000000000000000000000000000000000000815260040161091d90613bb5565b60405180910390fd5b6000600a8060008581526020019081526020016000206001015461094a9190613c33565b600a60008581526020019081526020016000206001015461096b9190613c64565b905080915050919050565b6000600854905090565b61099161098b612238565b826122f9565b6109d0576040517f08c379a00000000000000000000000000000000000000000000000000000000081526004016109c790613d0a565b60405180910390fd5b6109db83838361238e565b505050565b6000600760009054906101000a900473ffffffffffffffffffffffffffffffffffffffff1673ffffffffffffffffffffffffffffffffffffffff163373ffffffffffffffffffffffffffffffffffffffff1614610a72576040517f08c379a0000000000000000000000000000000000000000000000000000000008152600401610a6990613d9c565b60405180910390fd5b600760009054906101000a900473ffffffffffffffffffffffffffffffffffffffff1673ffffffffffffffffffffffffffffffffffffffff166108fc479081150290604051600060405180830381858888f19350505050158015610ada573d6000803e3d6000fd5b506001905090565b610afd838383604051806020016040528060008152506113f6565b505050565b600067016345785d8a000082610b189190613dbc565b9050610b22612687565b831115610b64576040517f08c379a0000000000000000000000000000000000000000000000000000000008152600401610b5b90613e4a565b60405180910390fd5b3373ffffffffffffffffffffffffffffffffffffffff16600a600085815260200190815260200160002060050160009054906101000a900473ffffffffffffffffffffffffffffffffffffffff1673ffffffffffffffffffffffffffffffffffffffff1614610c08576040517f08c379a0000000000000000000000000000000000000000000000000000000008152600401610bff90613f02565b60405180910390fd5b6008543414610c4c576040517f08c379a0000000000000000000000000000000000000000000000000000000008152600401610c4390613f94565b60405180910390fd5b6008548111610c90576040517f08c379a0000000000000000000000000000000000000000000000000000000008152600401610c8790614026565b60405180910390fd5b610c9b33308561238e565b30600a600085815260200190815260200160002060040160006101000a81548173ffffffffffffffffffffffffffffffffffffffff021916908373ffffffffffffffffffffffffffffffffffffffff16021790555080600a6000858152602001908152602001600020600101819055506001600a600085815260200190815260200160002060020160006101000a81548160ff021916908315150217905550505050565b6060600080600190505b610d51612687565b8111610de2573073ffffffffffffffffffffffffffffffffffffffff16600a600083815260200190815260200160002060040160009054906101000a900473ffffffffffffffffffffffffffffffffffffffff1673ffffffffffffffffffffffffffffffffffffffff1603610dcf578180610dcb90614046565b9250505b8080610dda90614046565b915050610d49565b506000808267ffffffffffffffff811115610e0057610dff613675565b5b604051908082528060200260200182016040528015610e3957816020015b610e2661304a565b815260200190600190039081610e1e5790505b5090506000600190505b610e4b612687565b8111611053573073ffffffffffffffffffffffffffffffffffffffff16600a600083815260200190815260200160002060040160009054906101000a900473ffffffffffffffffffffffffffffffffffffffff1673ffffffffffffffffffffffffffffffffffffffff160361104057600a60008281526020019081526020016000206040518060e001604052908160008201548152602001600182015481526020016002820160009054906101000a900460ff16151515158152602001600382015481526020016004820160009054906101000a900473ffffffffffffffffffffffffffffffffffffffff1673ffffffffffffffffffffffffffffffffffffffff1673ffffffffffffffffffffffffffffffffffffffff1681526020016005820160009054906101000a900473ffffffffffffffffffffffffffffffffffffffff1673ffffffffffffffffffffffffffffffffffffffff1673ffffffffffffffffffffffffffffffffffffffff1681526020016006820160009054906101000a900473ffffffffffffffffffffffffffffffffffffffff1673ffffffffffffffffffffffffffffffffffffffff1673ffffffffffffffffffffffffffffffffffffffff16815250508284815181106110265761102561408e565b5b6020026020010181905250828061103c90614046565b9350505b808061104b90614046565b915050610e43565b5080935050505090565b60008061106983612691565b9050600073ffffffffffffffffffffffffffffffffffffffff168173ffffffffffffffffffffffffffffffffffffffff16036110da576040517f08c379a00000000000000000000000000000000000000000000000000000000081526004016110d190614109565b60405180910390fd5b80915050919050565b60008073ffffffffffffffffffffffffffffffffffffffff168273ffffffffffffffffffffffffffffffffffffffff1603611153576040517f08c379a000000000000000000000000000000000000000000000000000000000815260040161114a9061419b565b60405180910390fd5b600360008373ffffffffffffffffffffffffffffffffffffffff1673ffffffffffffffffffffffffffffffffffffffff168152602001908152602001600020549050919050565b60006111a46113cc565b73ffffffffffffffffffffffffffffffffffffffff163373ffffffffffffffffffffffffffffffffffffffff16148061123e5750600a600083815260200190815260200160002060040160009054906101000a900473ffffffffffffffffffffffffffffffffffffffff1673ffffffffffffffffffffffffffffffffffffffff163373ffffffffffffffffffffffffffffffffffffffff16145b1561126157600a600083815260200190815260200160002060010154905061131f565b3073ffffffffffffffffffffffffffffffffffffffff16600a600084815260200190815260200160002060040160009054906101000a900473ffffffffffffffffffffffffffffffffffffffff1673ffffffffffffffffffffffffffffffffffffffff1614611305576040517f08c379a00000000000000000000000000000000000000000000000000000000081526004016112fc9061422d565b60405180910390fd5b600a60008381526020019081526020016000206001015490505b919050565b606060018054611333906139a2565b80601f016020809104026020016040519081016040528092919081815260200182805461135f906139a2565b80156113ac5780601f10611381576101008083540402835291602001916113ac565b820191906000526020600020905b81548152906001019060200180831161138f57829003601f168201915b5050505050905090565b6113c86113c1612238565b83836126ce565b5050565b6000600760009054906101000a900473ffffffffffffffffffffffffffffffffffffffff16905090565b611407611401612238565b836122f9565b611446576040517f08c379a000000000000000000000000000000000000000000000000000000000815260040161143d90613d0a565b60405180910390fd5b6114528484848461283a565b50505050565b6060611463826121ed565b6000600660008481526020019081526020016000208054611483906139a2565b80601f01602080910402602001604051908101604052809291908181526020018280546114af906139a2565b80156114fc5780601f106114d1576101008083540402835291602001916114fc565b820191906000526020600020905b8154815290600101906020018083116114df57829003601f168201915b50505050509050600061150d612896565b90506000815103611522578192505050611565565b60008251111561155757808260405160200161153f929190614289565b60405160208183030381529060405292505050611565565b611560846128ad565b925050505b919050565b6060600080600190505b61157c612687565b811161167a573373ffffffffffffffffffffffffffffffffffffffff16600a600083815260200190815260200160002060040160009054906101000a900473ffffffffffffffffffffffffffffffffffffffff1673ffffffffffffffffffffffffffffffffffffffff16148061165357503373ffffffffffffffffffffffffffffffffffffffff16600a600083815260200190815260200160002060050160009054906101000a900473ffffffffffffffffffffffffffffffffffffffff1673ffffffffffffffffffffffffffffffffffffffff16145b1561166757818061166390614046565b9250505b808061167290614046565b915050611574565b5060008167ffffffffffffffff81111561169757611696613675565b5b6040519080825280602002602001820160405280156116d057816020015b6116bd61304a565b8152602001906001900390816116b55790505b509050600080600190505b6116e3612687565b8111611958573373ffffffffffffffffffffffffffffffffffffffff16600a600083815260200190815260200160002060040160009054906101000a900473ffffffffffffffffffffffffffffffffffffffff1673ffffffffffffffffffffffffffffffffffffffff1614806117ba57503373ffffffffffffffffffffffffffffffffffffffff16600a600083815260200190815260200160002060050160009054906101000a900473ffffffffffffffffffffffffffffffffffffffff1673ffffffffffffffffffffffffffffffffffffffff16145b1561194557600a60008281526020019081526020016000206040518060e001604052908160008201548152602001600182015481526020016002820160009054906101000a900460ff16151515158152602001600382015481526020016004820160009054906101000a900473ffffffffffffffffffffffffffffffffffffffff1673ffffffffffffffffffffffffffffffffffffffff1673ffffffffffffffffffffffffffffffffffffffff1681526020016005820160009054906101000a900473ffffffffffffffffffffffffffffffffffffffff1673ffffffffffffffffffffffffffffffffffffffff1673ffffffffffffffffffffffffffffffffffffffff1681526020016006820160009054906101000a900473ffffffffffffffffffffffffffffffffffffffff1673ffffffffffffffffffffffffffffffffffffffff1673ffffffffffffffffffffffffffffffffffffffff168152505083838151811061192b5761192a61408e565b5b6020026020010181905250818061194190614046565b9250505b808061195090614046565b9150506116db565b5081935050505090565b600760009054906101000a900473ffffffffffffffffffffffffffffffffffffffff1673ffffffffffffffffffffffffffffffffffffffff163373ffffffffffffffffffffffffffffffffffffffff16146119f2576040517f08c379a00000000000000000000000000000000000000000000000000000000081526004016119e990613d9c565b60405180910390fd5b662386f26fc1000081611a059190613dbc565b60088190555050565b600067016345785d8a000083611a249190613dbc565b90506008543414611a6a576040517f08c379a0000000000000000000000000000000000000000000000000000000008152600401611a619061431f565b60405180910390fd5b6008548111611aae576040517f08c379a0000000000000000000000000000000000000000000000000000000008152600401611aa5906143d7565b60405180910390fd5b6103e882118015611ac0575061271082105b611aff576040517f08c379a0000000000000000000000000000000000000000000000000000000008152600401611af6906144b5565b60405180910390fd5b6000600190506000600190505b611b14612687565b8111611b505783600b60008381526020019081526020016000205403611b3d5760009150611b50565b8080611b4890614046565b915050611b0c565b5080611b91576040517f08c379a0000000000000000000000000000000000000000000000000000000008152600401611b8890614547565b60405180910390fd5b611b99612915565b6000611ba3612687565b9050611baf338261292f565b611bb9818761294d565b83600b6000838152602001908152602001600020819055506040518060e001604052808281526020018481526020016001151581526020018581526020013073ffffffffffffffffffffffffffffffffffffffff1681526020013373ffffffffffffffffffffffffffffffffffffffff1681526020013373ffffffffffffffffffffffffffffffffffffffff16815250600a6000838152602001908152602001600020600082015181600001556020820151816001015560408201518160020160006101000a81548160ff0219169083151502179055506060820151816003015560808201518160040160006101000a81548173ffffffffffffffffffffffffffffffffffffffff021916908373ffffffffffffffffffffffffffffffffffffffff16021790555060a08201518160050160006101000a81548173ffffffffffffffffffffffffffffffffffffffff021916908373ffffffffffffffffffffffffffffffffffffffff16021790555060c08201518160060160006101000a81548173ffffffffffffffffffffffffffffffffffffffff021916908373ffffffffffffffffffffffffffffffffffffffff160217905550905050611d7d33308361238e565b505050505050565b600a6000828152602001908152602001600020600101543414611ddd576040517f08c379a0000000000000000000000000000000000000000000000000000000008152600401611dd4906145d9565b60405180910390fd5b60011515600a600083815260200190815260200160002060020160009054906101000a900460ff16151514611e47576040517f08c379a0000000000000000000000000000000000000000000000000000000008152600401611e3e90614645565b60405180910390fd5b3073ffffffffffffffffffffffffffffffffffffffff16600a600083815260200190815260200160002060040160009054906101000a900473ffffffffffffffffffffffffffffffffffffffff1673ffffffffffffffffffffffffffffffffffffffff1614611eeb576040517f08c379a0000000000000000000000000000000000000000000000000000000008152600401611ee2906146d7565b60405180910390fd5b600a600082815260200190815260200160002060060160009054906101000a900473ffffffffffffffffffffffffffffffffffffffff1673ffffffffffffffffffffffffffffffffffffffff166108fc600a34611f489190613c33565b9081150290604051600060405180830381858888f19350505050158015611f73573d6000803e3d6000fd5b50600a600082815260200190815260200160002060050160009054906101000a900473ffffffffffffffffffffffffffffffffffffffff1673ffffffffffffffffffffffffffffffffffffffff166108fc600a34611fd19190613c33565b34611fdc91906146f7565b9081150290604051600060405180830381858888f19350505050158015612007573d6000803e3d6000fd5b5061201330338361238e565b33600a600083815260200190815260200160002060040160006101000a81548173ffffffffffffffffffffffffffffffffffffffff021916908373ffffffffffffffffffffffffffffffffffffffff16021790555033600a600083815260200190815260200160002060050160006101000a81548173ffffffffffffffffffffffffffffffffffffffff021916908373ffffffffffffffffffffffffffffffffffffffff1602179055506000600a600083815260200190815260200160002060020160006101000a81548160ff02191690831515021790555050565b6000600560008473ffffffffffffffffffffffffffffffffffffffff1673ffffffffffffffffffffffffffffffffffffffff16815260200190815260200160002060008373ffffffffffffffffffffffffffffffffffffffff1673ffffffffffffffffffffffffffffffffffffffff16815260200190815260200160002060009054906101000a900460ff16905092915050565b60007f01ffc9a7000000000000000000000000000000000000000000000000000000007bffffffffffffffffffffffffffffffffffffffffffffffffffffffff1916827bffffffffffffffffffffffffffffffffffffffffffffffffffffffff1916149050919050565b6121f6816129ba565b612235576040517f08c379a000000000000000000000000000000000000000000000000000000000815260040161222c90614109565b60405180910390fd5b50565b600033905090565b816004600083815260200190815260200160002060006101000a81548173ffffffffffffffffffffffffffffffffffffffff021916908373ffffffffffffffffffffffffffffffffffffffff160217905550808273ffffffffffffffffffffffffffffffffffffffff166122b38361105d565b73ffffffffffffffffffffffffffffffffffffffff167f8c5be1e5ebec7d5bd14f71427d1e84f3dd0314c0f7b2291e5b200ac8c7c3b92560405160405180910390a45050565b6000806123058361105d565b90508073ffffffffffffffffffffffffffffffffffffffff168473ffffffffffffffffffffffffffffffffffffffff161480612347575061234681856120ef565b5b8061238557508373ffffffffffffffffffffffffffffffffffffffff1661236d84610723565b73ffffffffffffffffffffffffffffffffffffffff16145b91505092915050565b8273ffffffffffffffffffffffffffffffffffffffff166123ae8261105d565b73ffffffffffffffffffffffffffffffffffffffff1614612404576040517f08c379a00000000000000000000000000000000000000000000000000000000081526004016123fb9061479d565b60405180910390fd5b600073ffffffffffffffffffffffffffffffffffffffff168273ffffffffffffffffffffffffffffffffffffffff1603612473576040517f08c379a000000000000000000000000000000000000000000000000000000000815260040161246a9061482f565b60405180910390fd5b61248083838360016129fb565b8273ffffffffffffffffffffffffffffffffffffffff166124a08261105d565b73ffffffffffffffffffffffffffffffffffffffff16146124f6576040517f08c379a00000000000000000000000000000000000000000000000000000000081526004016124ed9061479d565b60405180910390fd5b6004600082815260200190815260200160002060006101000a81549073ffffffffffffffffffffffffffffffffffffffff02191690556001600360008573ffffffffffffffffffffffffffffffffffffffff1673ffffffffffffffffffffffffffffffffffffffff168152602001908152602001600020600082825403925050819055506001600360008473ffffffffffffffffffffffffffffffffffffffff1673ffffffffffffffffffffffffffffffffffffffff16815260200190815260200160002060008282540192505081905550816002600083815260200190815260200160002060006101000a81548173ffffffffffffffffffffffffffffffffffffffff021916908373ffffffffffffffffffffffffffffffffffffffff160217905550808273ffffffffffffffffffffffffffffffffffffffff168473ffffffffffffffffffffffffffffffffffffffff167fddf252ad1be2c89b69c2b068fc378daa952ba7f163c4a11628f55a4df523b3ef60405160405180910390a46126828383836001612a01565b505050565b6000600954905090565b60006002600083815260200190815260200160002060009054906101000a900473ffffffffffffffffffffffffffffffffffffffff169050919050565b8173ffffffffffffffffffffffffffffffffffffffff168373ffffffffffffffffffffffffffffffffffffffff160361273c576040517f08c379a00000000000000000000000000000000000000000000000000000000081526004016127339061489b565b60405180910390fd5b80600560008573ffffffffffffffffffffffffffffffffffffffff1673ffffffffffffffffffffffffffffffffffffffff16815260200190815260200160002060008473ffffffffffffffffffffffffffffffffffffffff1673ffffffffffffffffffffffffffffffffffffffff16815260200190815260200160002060006101000a81548160ff0219169083151502179055508173ffffffffffffffffffffffffffffffffffffffff168373ffffffffffffffffffffffffffffffffffffffff167f17307eab39ab6107e8899845ad3d59bd9653f200f220920489ca2b5937696c318360405161282d919061317f565b60405180910390a3505050565b61284584848461238e565b61285184848484612a07565b612890576040517f08c379a00000000000000000000000000000000000000000000000000000000081526004016128879061492d565b60405180910390fd5b50505050565b606060405180602001604052806000815250905090565b60606128b8826121ed565b60006128c2612896565b905060008151116128e2576040518060200160405280600081525061290d565b806128ec84612b8e565b6040516020016128fd929190614289565b6040516020818303038152906040525b915050919050565b6009600081548092919061292890614046565b9190505550565b612949828260405180602001604052806000815250612c5c565b5050565b612956826129ba565b612995576040517f08c379a000000000000000000000000000000000000000000000000000000000815260040161298c906149bf565b60405180910390fd5b806006600084815260200190815260200160002090816129b59190614b8b565b505050565b60008073ffffffffffffffffffffffffffffffffffffffff166129dc83612691565b73ffffffffffffffffffffffffffffffffffffffff1614159050919050565b50505050565b50505050565b6000612a288473ffffffffffffffffffffffffffffffffffffffff16612cb7565b15612b81578373ffffffffffffffffffffffffffffffffffffffff1663150b7a02612a51612238565b8786866040518563ffffffff1660e01b8152600401612a739493929190614cb2565b6020604051808303816000875af1925050508015612aaf57506040513d601f19601f82011682018060405250810190612aac9190614d13565b60015b612b31573d8060008114612adf576040519150601f19603f3d011682016040523d82523d6000602084013e612ae4565b606091505b506000815103612b29576040517f08c379a0000000000000000000000000000000000000000000000000000000008152600401612b209061492d565b60405180910390fd5b805181602001fd5b63150b7a0260e01b7bffffffffffffffffffffffffffffffffffffffffffffffffffffffff1916817bffffffffffffffffffffffffffffffffffffffffffffffffffffffff191614915050612b86565b600190505b949350505050565b606060006001612b9d84612cda565b01905060008167ffffffffffffffff811115612bbc57612bbb613675565b5b6040519080825280601f01601f191660200182016040528015612bee5781602001600182028036833780820191505090505b509050600082602001820190505b600115612c51578080600190039150507f3031323334353637383961626364656600000000000000000000000000000000600a86061a8153600a8581612c4557612c44613bd5565b5b04945060008503612bfc575b819350505050919050565b612c668383612e2d565b612c736000848484612a07565b612cb2576040517f08c379a0000000000000000000000000000000000000000000000000000000008152600401612ca99061492d565b60405180910390fd5b505050565b6000808273ffffffffffffffffffffffffffffffffffffffff163b119050919050565b600080600090507a184f03e93ff9f4daa797ed6e38ed64bf6a1f0100000000000000008310612d38577a184f03e93ff9f4daa797ed6e38ed64bf6a1f0100000000000000008381612d2e57612d2d613bd5565b5b0492506040810190505b6d04ee2d6d415b85acef81000000008310612d75576d04ee2d6d415b85acef81000000008381612d6b57612d6a613bd5565b5b0492506020810190505b662386f26fc100008310612da457662386f26fc100008381612d9a57612d99613bd5565b5b0492506010810190505b6305f5e1008310612dcd576305f5e1008381612dc357612dc2613bd5565b5b0492506008810190505b6127108310612df2576127108381612de857612de7613bd5565b5b0492506004810190505b60648310612e155760648381612e0b57612e0a613bd5565b5b0492506002810190505b600a8310612e24576001810190505b80915050919050565b600073ffffffffffffffffffffffffffffffffffffffff168273ffffffffffffffffffffffffffffffffffffffff1603612e9c576040517f08c379a0000000000000000000000000000000000000000000000000000000008152600401612e9390614d8c565b60405180910390fd5b612ea5816129ba565b15612ee5576040517f08c379a0000000000000000000000000000000000000000000000000000000008152600401612edc90614df8565b60405180910390fd5b612ef36000838360016129fb565b612efc816129ba565b15612f3c576040517f08c379a0000000000000000000000000000000000000000000000000000000008152600401612f3390614df8565b60405180910390fd5b6001600360008473ffffffffffffffffffffffffffffffffffffffff1673ffffffffffffffffffffffffffffffffffffffff16815260200190815260200160002060008282540192505081905550816002600083815260200190815260200160002060006101000a81548173ffffffffffffffffffffffffffffffffffffffff021916908373ffffffffffffffffffffffffffffffffffffffff160217905550808273ffffffffffffffffffffffffffffffffffffffff16600073ffffffffffffffffffffffffffffffffffffffff167fddf252ad1be2c89b69c2b068fc378daa952ba7f163c4a11628f55a4df523b3ef60405160405180910390a4613046600083836001612a01565b5050565b6040518060e00160405280600081526020016000815260200160001515815260200160008152602001600073ffffffffffffffffffffffffffffffffffffffff168152602001600073ffffffffffffffffffffffffffffffffffffffff168152602001600073ffffffffffffffffffffffffffffffffffffffff1681525090565b6000604051905090565b600080fd5b600080fd5b60007fffffffff0000000000000000000000000000000000000000000000000000000082169050919050565b613114816130df565b811461311f57600080fd5b50565b6000813590506131318161310b565b92915050565b60006020828403121561314d5761314c6130d5565b5b600061315b84828501613122565b91505092915050565b60008115159050919050565b61317981613164565b82525050565b60006020820190506131946000830184613170565b92915050565b600081519050919050565b600082825260208201905092915050565b60005b838110156131d45780820151818401526020810190506131b9565b60008484015250505050565b6000601f19601f8301169050919050565b60006131fc8261319a565b61320681856131a5565b93506132168185602086016131b6565b61321f816131e0565b840191505092915050565b6000602082019050818103600083015261324481846131f1565b905092915050565b6000819050919050565b61325f8161324c565b811461326a57600080fd5b50565b60008135905061327c81613256565b92915050565b600060208284031215613298576132976130d5565b5b60006132a68482850161326d565b91505092915050565b600073ffffffffffffffffffffffffffffffffffffffff82169050919050565b60006132da826132af565b9050919050565b6132ea816132cf565b82525050565b600060208201905061330560008301846132e1565b92915050565b613314816132cf565b811461331f57600080fd5b50565b6000813590506133318161330b565b92915050565b6000806040838503121561334e5761334d6130d5565b5b600061335c85828601613322565b925050602061336d8582860161326d565b9150509250929050565b6133808161324c565b82525050565b600060208201905061339b6000830184613377565b92915050565b6000806000606084860312156133ba576133b96130d5565b5b60006133c886828701613322565b93505060206133d986828701613322565b92505060406133ea8682870161326d565b9150509250925092565b6000806040838503121561340b5761340a6130d5565b5b60006134198582860161326d565b925050602061342a8582860161326d565b9150509250929050565b600081519050919050565b600082825260208201905092915050565b6000819050602082019050919050565b6134698161324c565b82525050565b61347881613164565b82525050565b6000613489826132af565b9050919050565b6134998161347e565b82525050565b60e0820160008201516134b56000850182613460565b5060208201516134c86020850182613460565b5060408201516134db604085018261346f565b5060608201516134ee6060850182613460565b5060808201516135016080850182613490565b5060a082015161351460a0850182613490565b5060c082015161352760c0850182613490565b50505050565b6000613539838361349f565b60e08301905092915050565b6000602082019050919050565b600061355d82613434565b613567818561343f565b935061357283613450565b8060005b838110156135a357815161358a888261352d565b975061359583613545565b925050600181019050613576565b5085935050505092915050565b600060208201905081810360008301526135ca8184613552565b905092915050565b6000602082840312156135e8576135e76130d5565b5b60006135f684828501613322565b91505092915050565b61360881613164565b811461361357600080fd5b50565b600081359050613625816135ff565b92915050565b60008060408385031215613642576136416130d5565b5b600061365085828601613322565b925050602061366185828601613616565b9150509250929050565b600080fd5b600080fd5b7f4e487b7100000000000000000000000000000000000000000000000000000000600052604160045260246000fd5b6136ad826131e0565b810181811067ffffffffffffffff821117156136cc576136cb613675565b5b80604052505050565b60006136df6130cb565b90506136eb82826136a4565b919050565b600067ffffffffffffffff82111561370b5761370a613675565b5b613714826131e0565b9050602081019050919050565b82818337600083830152505050565b600061374361373e846136f0565b6136d5565b90508281526020810184848401111561375f5761375e613670565b5b61376a848285613721565b509392505050565b600082601f8301126137875761378661366b565b5b8135613797848260208601613730565b91505092915050565b600080600080608085870312156137ba576137b96130d5565b5b60006137c887828801613322565b94505060206137d987828801613322565b93505060406137ea8782880161326d565b925050606085013567ffffffffffffffff81111561380b5761380a6130da565b5b61381787828801613772565b91505092959194509250565b600067ffffffffffffffff82111561383e5761383d613675565b5b613847826131e0565b9050602081019050919050565b600061386761386284613823565b6136d5565b90508281526020810184848401111561388357613882613670565b5b61388e848285613721565b509392505050565b600082601f8301126138ab576138aa61366b565b5b81356138bb848260208601613854565b91505092915050565b6000806000606084860312156138dd576138dc6130d5565b5b600084013567ffffffffffffffff8111156138fb576138fa6130da565b5b61390786828701613896565b93505060206139188682870161326d565b92505060406139298682870161326d565b9150509250925092565b6000806040838503121561394a576139496130d5565b5b600061395885828601613322565b925050602061396985828601613322565b9150509250929050565b7f4e487b7100000000000000000000000000000000000000000000000000000000600052602260045260246000fd5b600060028204905060018216806139ba57607f821691505b6020821081036139cd576139cc613973565b5b50919050565b7f4552433732313a20617070726f76616c20746f2063757272656e74206f776e6560008201527f7200000000000000000000000000000000000000000000000000000000000000602082015250565b6000613a2f6021836131a5565b9150613a3a826139d3565b604082019050919050565b60006020820190508181036000830152613a5e81613a22565b9050919050565b7f4552433732313a20617070726f76652063616c6c6572206973206e6f7420746f60008201527f6b656e206f776e6572206f7220617070726f76656420666f7220616c6c000000602082015250565b6000613ac1603d836131a5565b9150613acc82613a65565b604082019050919050565b60006020820190508181036000830152613af081613ab4565b9050919050565b7f596f7520617265206e6f7420617574686f72697a656420746f2073656520707260008201527f696365206f662074686973206e667420617320796f7520646f6e74206f776e2060208201527f6974206f7220796f7520616c7265616479206c6973746564206974206f6e206f60408201527f7572207765627369746500000000000000000000000000000000000000000000606082015250565b6000613b9f606a836131a5565b9150613baa82613af7565b608082019050919050565b60006020820190508181036000830152613bce81613b92565b9050919050565b7f4e487b7100000000000000000000000000000000000000000000000000000000600052601260045260246000fd5b7f4e487b7100000000000000000000000000000000000000000000000000000000600052601160045260246000fd5b6000613c3e8261324c565b9150613c498361324c565b925082613c5957613c58613bd5565b5b828204905092915050565b6000613c6f8261324c565b9150613c7a8361324c565b9250828201905080821115613c9257613c91613c04565b5b92915050565b7f4552433732313a2063616c6c6572206973206e6f7420746f6b656e206f776e6560008201527f72206f7220617070726f76656400000000000000000000000000000000000000602082015250565b6000613cf4602d836131a5565b9150613cff82613c98565b604082019050919050565b60006020820190508181036000830152613d2381613ce7565b9050919050565b7f596f7520617265206e6f7420616c6c6f77656420746f2075706461746520746860008201527f6520707269636520746f206c697374206974656d730000000000000000000000602082015250565b6000613d866035836131a5565b9150613d9182613d2a565b604082019050919050565b60006020820190508181036000830152613db581613d79565b9050919050565b6000613dc78261324c565b9150613dd28361324c565b9250828202613de08161324c565b91508282048414831517613df757613df6613c04565b5b5092915050565b7f596f757220746f6b656e4944206973206e6f742076616c696400000000000000600082015250565b6000613e346019836131a5565b9150613e3f82613dfe565b602082019050919050565b60006020820190508181036000830152613e6381613e27565b9050919050565b7f596f7520617265206e6f7420617574686f72697a656420746f2073656c6c207360008201527f6f6d657468696e67207768696368206973206e6f74206f776e6564206279207960208201527f6f75000000000000000000000000000000000000000000000000000000000000604082015250565b6000613eec6042836131a5565b9150613ef782613e6a565b606082019050919050565b60006020820190508181036000830152613f1b81613edf565b9050919050565b7f506c656173652070726f7669646520726571756972656420616d6f756e74207460008201527f6f206c69737420796f7572206974656d73000000000000000000000000000000602082015250565b6000613f7e6031836131a5565b9150613f8982613f22565b604082019050919050565b60006020820190508181036000830152613fad81613f71565b9050919050565b7f596f75722070726963652073686f756c6420626520677265617465722074686160008201527f6e20746865206c697374696e6720707269636500000000000000000000000000602082015250565b60006140106033836131a5565b915061401b82613fb4565b604082019050919050565b6000602082019050818103600083015261403f81614003565b9050919050565b60006140518261324c565b91507fffffffffffffffffffffffffffffffffffffffffffffffffffffffffffffffff820361408357614082613c04565b5b600182019050919050565b7f4e487b7100000000000000000000000000000000000000000000000000000000600052603260045260246000fd5b7f4552433732313a20696e76616c696420746f6b656e2049440000000000000000600082015250565b60006140f36018836131a5565b91506140fe826140bd565b602082019050919050565b60006020820190508181036000830152614122816140e6565b9050919050565b7f4552433732313a2061646472657373207a65726f206973206e6f74206120766160008201527f6c6964206f776e65720000000000000000000000000000000000000000000000602082015250565b60006141856029836131a5565b915061419082614129565b604082019050919050565b600060208201905081810360008301526141b481614178565b9050919050565b7f546865206974656d206973206e6f74206c697374656420666f722073616c652060008201527f736f2063616e742074656c6c2074686520707269636500000000000000000000602082015250565b60006142176036836131a5565b9150614222826141bb565b604082019050919050565b600060208201905081810360008301526142468161420a565b9050919050565b600081905092915050565b60006142638261319a565b61426d818561424d565b935061427d8185602086016131b6565b80840191505092915050565b60006142958285614258565b91506142a18284614258565b91508190509392505050565b7f506c6561736520676976652061746c656173742074686520616d6f756e74207260008201527f6571756972656420746f206c697374206974656d730000000000000000000000602082015250565b60006143096035836131a5565b9150614314826142ad565b604082019050919050565b60006020820190508181036000830152614338816142fc565b9050919050565b7f546865207072696365206f66207468652070726f647563742073686f756c642060008201527f62652067726561746572207468616e20746865206c697374696e67207072696360208201527f652061746c656173740000000000000000000000000000000000000000000000604082015250565b60006143c16049836131a5565b91506143cc8261433f565b606082019050919050565b600060208201905081810360008301526143f0816143b4565b9050919050565b7f596f7520646f6e74206861766520612076616c6964206365727469666963617460008201527f696f6e206e6f2e2c20706c656173652076657269667920796f7572207369676e60208201527f61747572652066726f6d2058595a206167656e637920746f206765742076616c60408201527f6964206365727469666963617465206e756d6265720000000000000000000000606082015250565b600061449f6075836131a5565b91506144aa826143f7565b608082019050919050565b600060208201905081810360008301526144ce81614492565b9050919050565b7f43616e74206c697374207468652073616d6520706879736963616c206173736560008201527f7420747769636500000000000000000000000000000000000000000000000000602082015250565b60006145316027836131a5565b915061453c826144d5565b604082019050919050565b6000602082019050818103600083015261456081614524565b9050919050565b7f506c656173652070726f7669646520657861637420616d6f756e74207265717560008201527f657374656420746f20627579207468652070726f647563740000000000000000602082015250565b60006145c36038836131a5565b91506145ce82614567565b604082019050919050565b600060208201905081810360008301526145f2816145b6565b9050919050565b7f4e6f74206c697374656420666f722073616c6500000000000000000000000000600082015250565b600061462f6013836131a5565b915061463a826145f9565b602082019050919050565b6000602082019050818103600083015261465e81614622565b9050919050565b7f536d61727420636f6e7472616374206973206e6f7420616c6c6f77656420746f60008201527f2073656c6c20746869732070726f647563740000000000000000000000000000602082015250565b60006146c16032836131a5565b91506146cc82614665565b604082019050919050565b600060208201905081810360008301526146f0816146b4565b9050919050565b60006147028261324c565b915061470d8361324c565b925082820390508181111561472557614724613c04565b5b92915050565b7f4552433732313a207472616e736665722066726f6d20696e636f72726563742060008201527f6f776e6572000000000000000000000000000000000000000000000000000000602082015250565b60006147876025836131a5565b91506147928261472b565b604082019050919050565b600060208201905081810360008301526147b68161477a565b9050919050565b7f4552433732313a207472616e7366657220746f20746865207a65726f2061646460008201527f7265737300000000000000000000000000000000000000000000000000000000602082015250565b60006148196024836131a5565b9150614824826147bd565b604082019050919050565b600060208201905081810360008301526148488161480c565b9050919050565b7f4552433732313a20617070726f766520746f2063616c6c657200000000000000600082015250565b60006148856019836131a5565b91506148908261484f565b602082019050919050565b600060208201905081810360008301526148b481614878565b9050919050565b7f4552433732313a207472616e7366657220746f206e6f6e20455243373231526560008201527f63656976657220696d706c656d656e7465720000000000000000000000000000602082015250565b60006149176032836131a5565b9150614922826148bb565b604082019050919050565b600060208201905081810360008301526149468161490a565b9050919050565b7f45524337323155524953746f726167653a2055524920736574206f66206e6f6e60008201527f6578697374656e7420746f6b656e000000000000000000000000000000000000602082015250565b60006149a9602e836131a5565b91506149b48261494d565b604082019050919050565b600060208201905081810360008301526149d88161499c565b9050919050565b60008190508160005260206000209050919050565b60006020601f8301049050919050565b600082821b905092915050565b600060088302614a417fffffffffffffffffffffffffffffffffffffffffffffffffffffffffffffffff82614a04565b614a4b8683614a04565b95508019841693508086168417925050509392505050565b6000819050919050565b6000614a88614a83614a7e8461324c565b614a63565b61324c565b9050919050565b6000819050919050565b614aa283614a6d565b614ab6614aae82614a8f565b848454614a11565b825550505050565b600090565b614acb614abe565b614ad6818484614a99565b505050565b5b81811015614afa57614aef600082614ac3565b600181019050614adc565b5050565b601f821115614b3f57614b10816149df565b614b19846149f4565b81016020851015614b28578190505b614b3c614b34856149f4565b830182614adb565b50505b505050565b600082821c905092915050565b6000614b6260001984600802614b44565b1980831691505092915050565b6000614b7b8383614b51565b9150826002028217905092915050565b614b948261319a565b67ffffffffffffffff811115614bad57614bac613675565b5b614bb782546139a2565b614bc2828285614afe565b600060209050601f831160018114614bf55760008415614be3578287015190505b614bed8582614b6f565b865550614c55565b601f198416614c03866149df565b60005b82811015614c2b57848901518255600182019150602085019450602081019050614c06565b86831015614c485784890151614c44601f891682614b51565b8355505b6001600288020188555050505b505050505050565b600081519050919050565b600082825260208201905092915050565b6000614c8482614c5d565b614c8e8185614c68565b9350614c9e8185602086016131b6565b614ca7816131e0565b840191505092915050565b6000608082019050614cc760008301876132e1565b614cd460208301866132e1565b614ce16040830185613377565b8181036060830152614cf38184614c79565b905095945050505050565b600081519050614d0d8161310b565b92915050565b600060208284031215614d2957614d286130d5565b5b6000614d3784828501614cfe565b91505092915050565b7f4552433732313a206d696e7420746f20746865207a65726f2061646472657373600082015250565b6000614d766020836131a5565b9150614d8182614d40565b602082019050919050565b60006020820190508181036000830152614da581614d69565b9050919050565b7f4552433732313a20746f6b656e20616c7265616479206d696e74656400000000600082015250565b6000614de2601c836131a5565b9150614ded82614dac565b602082019050919050565b60006020820190508181036000830152614e1181614dd5565b905091905056fea2646970667358221220aca197c471f86a36981342d7dd66567fca769d82f3ea6bd9af366518a55a7ae864736f6c63430008130033",
  "immutableReferences": {},
  "source": "// SPDX-License-Identifier: UN\r\npragma solidity 0.8.19;  //running on latest version of compiler as openzeppelin sometimes gives warnings\r\n\r\nimport \"@openzeppelin/contracts/token/ERC721/ERC721.sol\";\r\nimport \"@openzeppelin/contracts/token/ERC721/extensions/ERC721URIStorage.sol\";\r\n\r\ncontract CelebritySignature is ERC721URIStorage{\r\n\r\n    address payable owner;      //so that we can make the person who deploys this sc the owner of this sc.\r\n    //made it payable so that it can withdraw funds\r\n\r\n    uint priceToListItems = 0.01 ether;    //this is the price anyone has to pay to list their items on our app\r\n    uint tokenIdIndex=0;\r\n\r\n    mapping(uint=>SignatureDetails) private IdMappedToSigDetails;  \r\n    mapping(uint=>uint) private IDMappedToCertificateHash;   // to counter duplicacy\r\n\r\n    struct SignatureDetails{\r\n        uint sigID;\r\n        uint price;\r\n        bool forSale;     // this tell whether the item is still listed or not\r\n        uint certificateHash;   // this is to verify validity\r\n        address payable owner;\r\n        address payable seller;\r\n        address payable originalSeller;   // who orginally minted the item, he will get 10% commision on every trade of the nft he minted\r\n    }   \r\n\r\n    event ItemListedSuccessfully();\r\n    event ItemBuyedSuccessfully();\r\n    \r\n    modifier onlyOwner(){\r\n        require(msg.sender==owner,\"You are not allowed to update the price to list items\");\r\n        _;\r\n    }\r\n\r\n    constructor() ERC721(\"CELEBSIGNTOKEN\",\"CST\"){\r\n        owner= payable(msg.sender);\r\n    }\r\n\r\n    // people have to pay fees to list items on our app so with this they can view the current listing price and as the popularity of my website increase I can increase the listing price\r\n    function getPriceToList() public view returns(uint){\r\n        return priceToListItems;\r\n    }\r\n\r\n    // with popularity Only owner of the SC can change the price to list\r\n    function updatePriceToList(uint price) public onlyOwner{\r\n        priceToListItems=(price)*10**16;   \r\n    }\r\n\r\n    function OwnerOfSC() public view returns(address){\r\n        return owner;\r\n    }\r\n\r\n    // we tried to implement something like before selling any signature, the person need to go\r\n    // to any signature verification agency where they will take the hard copy from the owner and\r\n    // give a digitally watermarked version of the signature with a unique hashcode(which will be verified in our smart contract)\r\n    // Only this digitally watermarked file can be traded on our website.\r\n    // While generating this hashcode we must include the etherium address of that owner as well so that no one else can list it from any other account\r\n\r\n    // Right now we are generating dummy values of this hashcode but later in stage 2, we can shift to real implementation\r\n\r\n    function ListItem(string memory tokenURI, uint enteredPrice, uint certificateHash) public payable {\r\n        uint price=enteredPrice* 10**17;\r\n        require(msg.value==priceToListItems, \"Please give atleast the amount required to list items\");\r\n        require(price>priceToListItems,\"The price of the product should be greater than the listing price atleast\");\r\n        require(certificateHash>1000 && certificateHash<10000, \"You dont have a valid certification no., please verify your signature from XYZ agency to get valid certificate number\");\r\n        \r\n        bool checker=true;\r\n        for(uint i=1; i<=CurrentTokenID();i++){\r\n            if(IDMappedToCertificateHash[i]==certificateHash){\r\n                checker=false;\r\n                break;\r\n            }\r\n        }\r\n        require(checker, \"Cant list the same physical asset twice\");\r\n\r\n        increment();\r\n        uint currentTokenId = CurrentTokenID();\r\n        _safeMint(msg.sender,currentTokenId);\r\n        _setTokenURI(currentTokenId,tokenURI);\r\n\r\n        IDMappedToCertificateHash[currentTokenId] = certificateHash; \r\n        IdMappedToSigDetails[currentTokenId] = SignatureDetails(currentTokenId,price,true,\r\n                                    certificateHash,payable(address(this)),payable(msg.sender),payable(msg.sender));\r\n\r\n        _transfer(msg.sender,address(this),currentTokenId);\r\n\r\n    }\r\n\r\n    // this function is to get the nfts owned by any particular person\r\n    function getMyNFT() public view returns(SignatureDetails[] memory){\r\n        // I cound have used the dynamic array but its gas expensive so used fixed size array only, but due to that have to place an extra for loop so not sure about the tradeoff\r\n        uint count;\r\n        for(uint i=1;i<=CurrentTokenID();i++){\r\n            if(IdMappedToSigDetails[i].owner==msg.sender  || IdMappedToSigDetails[i].seller==msg.sender){\r\n                count++;\r\n            }\r\n        }\r\n\r\n        SignatureDetails[] memory myNFT=new SignatureDetails[](count);\r\n        uint myNFTindex=0;\r\n        for(uint i=1;i<=CurrentTokenID();i++){\r\n            if(IdMappedToSigDetails[i].owner==msg.sender  || IdMappedToSigDetails[i].seller==msg.sender){\r\n                myNFT[myNFTindex]=IdMappedToSigDetails[i];\r\n                myNFTindex++;\r\n            }\r\n        }\r\n\r\n        return myNFT;\r\n    }\r\n\r\n    // when someone buys nft, owner and seller will be that person who buys it and forSale will be false\r\n    function buyItem(uint tokenID) public payable{\r\n        // 10% of the price of any nft will go to the original person (who listed it for the first time) when any transfer of ownership takes place\r\n        // so lets say the A (1st person) listed a CR7 sig for 10 eth, sold it to B. Now B wants to sell this sig to C. So if he lists the price as \r\n        // 10 eth, then B will only get 9eth and 1 eth will go to A(original seller), so B has to sell at any price above than 11eth to make some profit\r\n        // This is how nft sig will becomes more and more valueable as the transactions including that nft increases. \r\n\r\n        require(msg.value==IdMappedToSigDetails[tokenID].price, \"Please provide exact amount requested to buy the product\");\r\n        require(IdMappedToSigDetails[tokenID].forSale==true, \"Not listed for sale\");\r\n        require(IdMappedToSigDetails[tokenID].owner==address(this), \"Smart contract is not allowed to sell this product\");\r\n        \r\n        IdMappedToSigDetails[tokenID].originalSeller.transfer(msg.value/10);\r\n        IdMappedToSigDetails[tokenID].seller.transfer(msg.value - msg.value/10);\r\n        _transfer(address(this), msg.sender, tokenID);\r\n        IdMappedToSigDetails[tokenID].owner = payable(msg.sender);\r\n        IdMappedToSigDetails[tokenID].seller = payable(msg.sender);\r\n        IdMappedToSigDetails[tokenID].forSale = false;   // not listed until owner thinks of reselling it    \r\n    }\r\n\r\n    // these are those items whose owner is Sc which means those items for which their owners gave Sc authority to sell their nft on their behalf\r\n    function ItemsListedForSale() public view returns(SignatureDetails[] memory){\r\n        uint count;\r\n        for(uint i=1;i<=CurrentTokenID();i++){\r\n            if(IdMappedToSigDetails[i].owner==address(this)){\r\n                count++;\r\n            }\r\n        }\r\n\r\n        uint index=0;\r\n        SignatureDetails[] memory listedItems= new SignatureDetails[](count);\r\n        for(uint i=1;i<=CurrentTokenID();i++){\r\n            if(IdMappedToSigDetails[i].owner==address(this)){\r\n                listedItems[index]=IdMappedToSigDetails[i];\r\n                index++;\r\n            }\r\n        }\r\n        return listedItems;\r\n    }\r\n    \r\n    // This function is when you want to resell a prepurchased nft, the Sc will become the owner and the owner will be the seller and forSale will be true\r\n    function resalePrepurchasedSignature(uint tokenID, uint enteredPrice) public payable{\r\n        uint price=enteredPrice* 10**17;\r\n        require(! (tokenID>CurrentTokenID()),\"Your tokenID is not valid\");\r\n        require(IdMappedToSigDetails[tokenID].seller==msg.sender,\"You are not authorized to sell something which is not owned by you\");\r\n        require(msg.value==priceToListItems,\"Please provide required amount to list your items\");\r\n        require(price>priceToListItems,\"Your price should be greater than the listing price\");\r\n        \r\n        _transfer(msg.sender,address(this), tokenID);\r\n        IdMappedToSigDetails[tokenID].owner = payable(address(this));\r\n        IdMappedToSigDetails[tokenID].price=price;\r\n        IdMappedToSigDetails[tokenID].forSale = true;\r\n    \r\n    }\r\n\r\n    // this function is to get price of any nft listed for sale or that you own\r\n    function getPriceOfanyNFT(uint tokenID) public view returns(uint){\r\n        if(msg.sender==OwnerOfSC() || msg.sender==IdMappedToSigDetails[tokenID].owner){\r\n            return IdMappedToSigDetails[tokenID].price;\r\n        }\r\n        else{\r\n            require(IdMappedToSigDetails[tokenID].owner==address(this), \"The item is not listed for sale so cant tell the price\");\r\n            return IdMappedToSigDetails[tokenID].price;\r\n        }\r\n    }\r\n\r\n    // this function is to getMinimum price above which you must resell you nft to get any profit as 10% of this price will go to the original seller who minted this nft, so need to take that into account as well before reselling \r\n    function getMinimumPriceToListBeforeSelling(uint tokenID) public view returns(uint){\r\n        //in order to get any profit you have to sell it atleast above this price\r\n        require(IdMappedToSigDetails[tokenID].owner == msg.sender, \"You are not authorized to see price of this nft as you dont own it or you already listed it on our website\");\r\n\r\n        uint minPrice = (IdMappedToSigDetails[tokenID].price + IdMappedToSigDetails[tokenID].price/10);\r\n        return minPrice;\r\n    }\r\n\r\n    // just for incrementing tokenIdIndex , taken reference from Counter.sol\r\n    function increment() private {\r\n        tokenIdIndex++;\r\n    }\r\n\r\n    function decrement() private {\r\n        tokenIdIndex--;\r\n    }\r\n\r\n    function CurrentTokenID() private view returns(uint){\r\n        return tokenIdIndex;\r\n    } \r\n\r\n    // this function is to withdraw funds that came to Sc throught the price people pay to list items\r\n    function withdrawFunds() public onlyOwner returns(uint){\r\n        owner.transfer(address(this).balance);\r\n        return 1;\r\n    }\r\n}\r\n\r\n\r\n",
  "sourcePath": "D:\\Desktop\\CS_APP\\CS_APP\\CSAPP\\contracts\\contracts\\CelebritySignature.sol",
  "compiler": {
    "name": "solc",
    "version": "0.8.19+commit.7dd6d404.Emscripten.clang"
  },
  "schemaVersion": "3.4.13",
  "updatedAt": "2023-05-08T03:11:25.328Z",
  "networkType": "ethereum",
  "devdoc": {
    "events": {
      "Approval(address,address,uint256)": {
        "details": "Emitted when `owner` enables `approved` to manage the `tokenId` token."
      },
      "ApprovalForAll(address,address,bool)": {
        "details": "Emitted when `owner` enables or disables (`approved`) `operator` to manage all of its assets."
      },
      "Transfer(address,address,uint256)": {
        "details": "Emitted when `tokenId` token is transferred from `from` to `to`."
      }
    },
    "kind": "dev",
    "methods": {
      "approve(address,uint256)": {
        "details": "See {IERC721-approve}."
      },
      "balanceOf(address)": {
        "details": "See {IERC721-balanceOf}."
      },
      "getApproved(uint256)": {
        "details": "See {IERC721-getApproved}."
      },
      "isApprovedForAll(address,address)": {
        "details": "See {IERC721-isApprovedForAll}."
      },
      "name()": {
        "details": "See {IERC721Metadata-name}."
      },
      "ownerOf(uint256)": {
        "details": "See {IERC721-ownerOf}."
      },
      "safeTransferFrom(address,address,uint256)": {
        "details": "See {IERC721-safeTransferFrom}."
      },
      "safeTransferFrom(address,address,uint256,bytes)": {
        "details": "See {IERC721-safeTransferFrom}."
      },
      "setApprovalForAll(address,bool)": {
        "details": "See {IERC721-setApprovalForAll}."
      },
      "supportsInterface(bytes4)": {
        "details": "See {IERC165-supportsInterface}."
      },
      "symbol()": {
        "details": "See {IERC721Metadata-symbol}."
      },
      "tokenURI(uint256)": {
        "details": "See {IERC721Metadata-tokenURI}."
      },
      "transferFrom(address,address,uint256)": {
        "details": "See {IERC721-transferFrom}."
      }
    },
    "version": 1
  },
  "userdoc": {
    "kind": "user",
    "methods": {},
    "version": 1
  }
}